S00B00004C43442E7372656346
S11300000C942A000C943F000C943F000C943F0085
S11300100C943F000C943F000C943F000C943F0060
S11300200C943F000C943F000C943F000C943F0050
S11300300C943F000C943F000C943F000C943F0040
S11300400C943F000C943F000C943F000C943F0030
S11300500C943F0011241FBECFE5D8E0DEBFCDBF16
S113006010E0A0E6B0E0ECE1F2E002C005900D92F1
S1130070AE37B107D9F70E94E6000C940C010C943A
S113008000008BBBC198C298C0980000C09A0000C1
S113009087EA91E60197F1F700C0000008958FEF19
S11300A08ABB18BAB89AB99ABA9AC09A88E30E94D5
S11300B041008CE00E94410008958BBBC198C29A14
S11300C0C0980000C09A000087EA91E60197F1F712
S11300D000C000000895CF93DF93EC01888188234A
S11300E031F021960E945D0089918111FBCFDF914F
S11300F0CF910895611104C080580E944100089571
S113010080540E9441000895EF92FF920F931F9331
S1130110CF93DF93CDB7DEB761970FB6F894DEBF08
S11301200FBECDBFAC01892BA1F1F12C0F2D10E036
S1130130E1E0F0E0EC0FFD1FE00FF11F9A01ADECE0
S1130140BCEC0E94FD0096958795969587959695AB
S113015087959C01220F331F880F991F880F991FC1
S1130160880F991F820F931F9A01281B390BC9010D
S1130170805D80839A010E94FD00AC0156954795ED
S11301805695479556954795F3944115510571F643
S113019002C00FEF10E0CE01800F911FFC013296D8
S11301A07F01F70182917F010E945D0001501109D6
S11301B0C2F761960FB6F894DEBF0FBECDBFDF91D4
S11301C0CF911F910F91FF90EF9008950E944F00DF
S11301D080E690E00E946B0084EE97E00E94840029
S11301E061E080E00E947A008DE690E00E946B005E
S11301F060E080E00E947A00EBCFA29FB001B39F41
S1130200C001A39F700D811D1124911DB29F700D1B
S10F0210811D1124911D0895F894FFCF66
S113021C68656C6C6F20776F726C642000686F700B
S111022C6520796F7527726520676F6F640017
S9030000FC
